S018000054505F534348494E415F3137333939372E73726563B0
S11300000C9434000C943E000C943E000C943E007E
S11300100C943E000C943E000C943E000C943E0064
S11300200C943E000C943E000C943E000C943E0054
S11300300C943E000C943E000C943E000C943E0044
S11300400C943E000C943E000C943E000C943E0034
S11300500C943E000C943E000C943E000C943E0024
S11300600C943E000C943E0011241FBECFEFD8E048
S1130070DEBFCDBF0E9451000C9454000C940000CC
S113008000E004BD0FEF07BD00E00ABD0FE005BDB1
S113009000EF08BD00EF0BBD00EF0BBD0FE00BBD83
S10F00A0FBCF0E944000FDCFF894FFCF7E
S9030000FC
